:020000040800F2
:100000000002002011040008ED030008A10300080D
:1000100000000000000000000000000000000000E0
:100020000000000000000000000000007503000850
:1000300000000000000000004D030008FD03000860
:10004000BD000008BD000008BD000008BD0000089C
:10005000BD0000082909000829090008290900082D
:10006000BD000008BD000008BD000008BD0000087C
:10007000BD000008BD000008BD000008490F0008D1
:10008000BD000008BD00000800000000BD00000821
:10009000BD000008BD000008BD000008BD0000084C
:1000A000BD000008BD000008BD0000085D07000895
:1000B0006707000800000000BD00000810B500F050
:1000C0009DF910BD10B500F073FA10BD7047000027
:1000D00070B50C00060000F05BFA094B094A1D6878
:1000E0002C19944202D8084A944207D20C230125C5
:1000F00033606D4200F054FA280070BD1C60F9E7CF
:100100000002002000200020580B002010B519002C
:10011000100000F05BFA10BD10B51900100000F0DF
:100120005FFA10BD13230360012040427047132380
:1001300003600120404270471323036001204042C6
:1001400070470023022203608A425B411800704717
:100150000020124B10B51860114B12491B680A6839
:100160005C421C40104B6343104CDB0EE35C104CB4
:100170009B001B591B68083B93420ED0824204D05F
:100180001079092801D10130107109221A71062253
:10019000985E084A0B601080012010BD9402002078
:1001A000880200209002002031B57C07162100084B
:1001B0009C0200208C02002030B50379082919D94F
:1001C000082B13D804004379184A9B009D58083423
:1001D000002D0DD02D6885609D582C60D4500123D2
:1001E0004479134AA340146823431360017130BD5E
:1001F0008460F3E7082BF9D942790C4C920013592B
:10020000002B04D01D68AB420DD10023135145795A
:10021000AB00E358002BE9D10133AB40044A14682A
:100220009C432300E1E72A681A60F0E79C02002063
:100230008802002010B5094B1B681A79082A02D9D8
:100240005B79834206D900F0AEF9002803D0012281
:10025000034B1A6010BD00F06FF8FBE7900200201E
:100260009402002070B5002400F092F9084B094A6E
:100270001B88094D1BB29B009C50084A2100136843
:100280002868013B1360FFF797FF2C6000F050F8DF
:100290008C020020DC020020900200209802002046
:1002A000D318032293431F4A10B51C1F2260620714
:1002B00003D0083B1C001C4B23608022231F5204E8
:1002C0001A601A4A043B1860043B1A600022043B7F
:1002D0001A60043B03321A60043B013A1A60043B83
:1002E000013A1A60043B19600632043B1A60043B71
:1002F000013A1A60043B013A1A60043B013A1A6061
:10030000043B07321A60043B013A1A60043B013A8D
:100310001A60043B013A1A602000032344385B4210
:10032000036010BD77777777888888886502000832
:1003300000F032F901DFFEE78023034A5B055168D4
:100340000B4353607047C04600ED00E0EFF30980B7
:10035000EC4685464046494652465B46FFB47046E9
:1003600001B46846E54602490968086000F002F8F1
:1003700090020020FFF7ECFEEE4608480068006897
:10038000854601BC8446FFBC8046894692469B4612
:10039000684680F30988F546604700009002002017
:1003A0000F4B104A10496846904203D8984201D931
:1003B000002102E0091C8D46012104207246024200
:1003C00002D1EFF3088001E0EFF30980F0B4434677
:1003D0004C4655465E4678B46B4600F04DF8C04634
:1003E00058010020002000200002002010B5024922
:1003F000042000F09FFBC046CF22000810B5024940
:10040000062000F097FBC046362100087047704771
:1004100070B5FFF7FBFF6A46104B11499A4214D89A
:10042000002310481049114C1A188A420FD300219A
:100430000F4B104A93420ED3FFF7E9FF00F068FB21
:1004400000F040FF00F0AAFB70BD02C3E6E7E558EC
:1004500004331560E8E702C3ECE7C0460000002063
:10046000FEE7FEE7000200208802002024240008A6
:1004700088020020580B0020F0B58DB00A92364A51
:100480000B931268354B040003919A4202D0344812
:1004900000F0BEFF039B002B37D00025314800F051
:1004A000B7FF2E00304800F0B3FF0A992F4800F044
:1004B00035FF039B002B23D12D4800F0A9FF31000D
:1004C0002C4800F02BFF6946234BC91A2A4BC91848
:1004D00003D54942294800F021FF0B9B1E00201C38
:1004E0008268C36801698C4641698E46AD46311CFD
:1004F000F0C9A046A946B246BB46F0C941680068AB
:1005000001BE1F49052000F015FB25002368E7699F
:1005100004936368A6690593A36824350693E3688A
:1005200007932369089363690993BB0500D4043DCD
:10053000144800F06DFF079B059A00930499069BF1
:10054000114800F0EBFE00973300099A08990F4814
:1005500000F0E4FEA6E7C04600000020FEE7FEE74C
:10056000442100085A2100081F2200082422000804
:100570003622000867220008A8FEFFFF8F2200082D
:10058000BC22000889210008A4210008E1210008FC
:10059000EFF3108072B6704762B6EFF310807047C9
:1005A00080F310887047EFF30580C0B270470000F9
:1005B000E12110B5034B044A4902002000F072F813
:1005C00010BDC04604020020310D000810B50A001D
:1005D0000100024800F0B7FB10BDC0460402002035
:1005E00010B50C000A000100002000F027F82000E0
:1005F00010BD0000142343430D4A70B59C58E569B3
:10060000AB0607D50B4BC000A18C1A18C9B2C35852
:100610005068984708231D4202D0226A1343236280
:10062000054B1B68002B01D0FFF786FE70BDC0464E
:10063000DC220008A00300209402002070B50128ED
:100640000CD81423802458430A4B8A18C35891426B
:1006500008D14022D9691142FCD070BD064903205F
:1006600000F068FA0878DD692542FCD080B2188570
:100670000131ECE7DC2200080423000810B5012852
:1006800003D90649032000F055FA14235843044BBC
:100690001B18987C596800F083FB10BD04230008E8
:1006A000DC220008F7B5050001910092012803D96A
:1006B0002649032000F03EFA14246C43244EC10066
:1006C000244A00983419E768885052185360012171
:1006D000380000F04DF8380000F0AFF8617C3800C9
:1006E00000F080F8009B002B08D0A768002138009C
:1006F00000F03EF8217C380000F074F82800FFF785
:10070000BDFF14235D430023745976192360B07C28
:100710006360A36000F036FB019900F047FD0F22F3
:1007200003091B051B0C10401843009BE060002BC5
:100730000AD01F23F27C1A401E3B9340064A1360E6
:100740002D2300202360FEBD0923FAE704230008BF
:10075000DC220008A003002000E100E010B500202A
:10076000FFF748FF10BD10B50120FFF743FF10BD94
:10077000F8B50F230D008021032704000600800A2E
:1007800018408902814002209C431E4000F008FB73
:100790003A0070008240D3432168194021602168EB
:1007A0008C4629003940634681401943D343216078
:1007B000E1680B40E360AB083B408340E1682D09F2
:1007C0000B4301210800B0400D40B540E360636871
:1007D00083436360636800201D436560A3681A4318
:1007E000A260F8BD0F2270B503250400104046003A
:1007F000B54094432368AB4323600223B34025688C
:100800002B430725236085429B412840800082407E
:1008100081405B429B00E3181C6A94431C621A6A85
:100820001143196270BD0F220300104093430E3A2A
:10083000824010001B69184070470F2302001840C7
:100840009A430E3B8340936170470F230200184088
:100850009A4310300E3B83409361704710B50400FB
:10086000FFF7E1FF002803D02000FFF7EEFF10BDE7
:100870002000FFF7E2FFFAE7F7B5040015000F22AA
:100880000F00810A11401440234A0191E1008B506E
:10089000521801210600089B0800536000F080FAFE
:1008A00039003000FFF764FF1C4B2022012C03DDD0
:1008B0004022032C00DD80221A6001221000A0409B
:1008C000C043174B9968014099602900D5401140F9
:1008D000A140A5409F68A41039439960D968A4003D
:1008E0000840D860D968B2400D430E49DD606418F5
:1008F00003210F25314089008D40A068A843019D48
:10090000A0608D402900A0680143A1605A61196868
:1009100000200A431A60FEBDB003002000E100E0A1
:100920000004014000000140F8B5002401270C4DEF
:100930006B692E681E403B00A3401E4206D0094A48
:100940006B61E3009B181A68586890470134102CBB
:10095000F1D1054B1B68002B01D0FFF7EDFCF8BD72
:1009600000040140B00300209402002010B50020D4
:1009700000F0ACFA10BD0000044B0200186810B57E
:10098000002802D1010000F083FA10BD30040020DD
:100990000020F0B5214F224E3B68224901333B60D5
:1009A000214B05001A68186033680A601900002995
:1009B00004D03C68A4468C6864451AD9002800D04D
:1009C0003160002D14D0002129608A4222D011000C
:1009D000002B05D050685C681900A04200D81100B7
:1009E000080012681B68002A07D103600D4B1960CC
:1009F000F0BD0D0001200968D9E7002B01D102608C
:100A0000F4E754685E681D00B44200D81500056024
:100A10002800E6E7034A1360EAE7C04634040020F2
:100A200038040020400400203C040020F8B50123D5
:100A30002B4F2C4C3B602368002B07D1FFF7A8FFFE
:100A4000FFF794FF431CFBD0002502E0FFF78EFF69
:100A500005002368002B06D1FFF788FF85421ED9C9
:100A6000FFF796FFF0E75E68FFF780FF854204D846
:100A7000864202D9361A132EEED823685E68FFF735
:100A800075FF854201D88642F7D823681A6818692D
:100A9000226000225A609A60DA689047D9E723689A
:100AA000002B0CD05E68FFF761FF143E14308642C5
:100AB000CFD3002330003B60FFF75EFFF8BDFFF7A8
:100AC00055FF06008542CBD80300153304D9FFF744
:100AD0004DFF8642FBD9C3E701267642E9E7C046CF
:100AE0003004002040040020002310B5044A0549CA
:100AF000180000F0FDF901204042FFF73DFF10BD56
:100B00002D0A000840420F0010B5FFF741FDFEE737
:100B100010B501210448FFF72BFE01210348FFF720
:100B200027FE00F022F910BD090800480808004817
:100B3000704700000D4B10B51A680C00002A0ED14A
:100B400001321A60032803D17146094800F0E6FB20
:100B50002100084800F0E2FB074800F0DFFBFFF748
:100B600017FDFFF7E5FFFFF7CFFFC0464404002065
:100B7000162300081A2300083623000810B500F0D9
:100B800083FA034800F0CAFB00F042FA002010BDCF
:100B90004423000810B500F0BBF8FCE71FB5FFF7D1
:100BA000F7FC002480210D4B0F221B6849000293A3
:100BB0000B4B019400930B480C2300F035F8C02137
:100BC000094B07221B68C9000293084B019400934C
:100BD00007480C2300F028F8FFF7AAFB18020020B2
:100BE000950B0008480400201C0200207D0B000823
:100BF0004805002070B50B79082B03D9094903205B
:100C0000FFF798FF0A004C7908320368002B02D1E5
:100C10008B60026070BD1D00083D6D79AC42F7D35A
:100C20001800F2E704230008F0B587B00500029130
:100C3000039204930F2A30D803220B00024003D002
:100C400004239B1AC518CB1A0322303B9343059308
:100C5000EC18049B1B0717D42D6003E01B600433C2
:100C6000A342FBD3FFF794FC0123274A019099008C
:100C700056581FB2002E13D00133212BF7D1019803
:100C8000FFF78EFC8B2709E02B00E9E72000FFF738
:100C900093FA0198FFF784FC32E016277F422FE099
:100CA0008C50059B2A000D99E7800C98FFF7F8FA05
:100CB000029B0121E3620E9B144AA362039B206006
:100CC000637101235B42E361136865620133136062
:100CD000049B2671A660E66026616661A6612662B5
:100CE0000B42D3D10A212000FFF766FA049B5B0771
:100CF000CFD40198FFF754FC6B469889FFF79AFA16
:100D0000380007B0F0BDC046DC0200209802002089
:100D10000421064A10B513698B431361FFF738FCB1
:100D2000BFF34F8F30BFFFF73BFC10BD00ED00E07D
:100D300070B5040000F047F905002000103000F005
:100D4000D7F9280070BD70B504000D001600320000
:100D50002900200000F023F9002800D070BD2000F9
:100D60000121103000F094F9F1E710B500F0E6F938
:100D700080210020490500F013F800F02BF800F066
:100D800035F910BD00487047006CDC02024B1B5C5B
:100D9000024858437047C0467A230008006CDC02C2
:100DA00001280BD0002804D002280CD0BFF34F8FAD
:100DB0007047074AD3691943D161F7E7044A936939
:100DC00019439161F2E7024A536919435161EDE712
:100DD0000010024070B50026FFF7DAFB1D4D04003D
:100DE000AE6000F03DF80C226E6069681142FCD1E3
:100DF0001121194A116081222A6080222968520239
:100E00000A432A608022920229681142FCD06A6853
:100E100012490A406A608822696852030A436A607C
:100E20008022296852040A432A6080229204296899
:100E30001142FCD0022269680A430C216A606A6888
:100E40000A40082AFBD100F017F82000FFF7A8FBA2
:100E500070BDC0460010024000200240FFFFC0FFEE
:100E60000122044B19680A431A60022219681142D0
:100E7000FCD07047001002400C22044B596811420C
:100E800003D001211A688A431A607047001002409B
:100E900010B5032914DC0C4B0001C4581B185B6807
:100EA00000201A400B000C339B00E3185A60022309
:100EB0008B4022699A432261E2681343E36010BDCC
:100EC00001204042FBE7C0467C230008024B0001A2
:100ED000C358586A7047C0467C230008034B000182
:100EE000C258012311680B43136070477C2300082C
:100EF00070B504000E0000281ED1114980250CC1D8
:100F00000121FFF74DFF0123ED055B422C6020001E
:100F10006C60EB62FFF73AFF310000F047F9012304
:100F200080220138A8626B61064B120220001A6011
:100F3000FFF7D4FF200070BD01204042FBE7C04610
:100F4000480B002000E100E0F8B5802400250227CE
:100F5000E4052369E6681E403A00AA40324207D001
:100F6000E36829009343E360064B1A68586890478A
:100F70000135042DF0D1044B1B68002B01D0FFF785
:100F8000DBF9F8BD480B002094020020836801685B
:100F90005A1C82604268013A1340C85C7047F8B539
:100FA000070015000C001600002E03D0BA68FB687D
:100FB0009A4201D1A81BF8BD3800FFF7E7FF013EB8
:100FC00020700134F0E7C36830B5426884681B1BA9
:100FD000934208D0C36804685D1CC5600020013AD4
:100FE0001340E15430BD01204042FBE77047000050
:100FF00010B50248FFF732FC10BDC0460908004892
:101000000023834200D17047C0460133F9E7000056
:1010100037B5002190200091164B0122C005FFF743
:101020002BFC01211448FFF7A3FB8025134CAD00D6
:10103000A5611348FFF7E4FFA5621148FFF7E0FF41
:10104000636910486B406361FFF7DAFF63690D481D
:101050006B406361FFF7D4FF63690A486B406361CB
:10106000FFF7CEFF636906485D406561FFF7C8FF83
:10107000DBE7C046F10F00080908004800080048F7
:1010800000F82401003E490010B5FFF72DFD10BD0A
:1010900070B504000D00FFF77BFA23680600002BF3
:1010A00006D1013B2360FFF77BFA0125280070BDC4
:1010B000002D18D00D4B02211D682800FFF77CF889
:1010C000236801330AD12B00083323600023AB606F
:1010D0003000FFF765FAFFF72FF9E6E72900200057
:1010E000FFF788FDF4E7FFF75BFADFE790020020E7
:1010F00070B50500FFF74CFA2C680600002C03D1F0
:101100003000FFF74DFA70BD631C02D100232B6045
:10111000F6E72368083C2B600A212000FFF74CF813
:101120002B68002B01D1013B2B6064793000FFF765
:1011300037FA2000FFF77EF8E5E70000184B194961
:101140001A6AF0B511408022D2030A4380211A6244
:10115000DA69C9051202120A0A43DA610322C025BC
:1011600000219446FF27AD0064463E000C40E40099
:10117000A6408A080C489200121850590131B04319
:101180004026A640304350511F29EDD11022196945
:101190000A431A618022596992000A435A61F0BDDC
:1011A00000ED00E0FFFF00FF00E100E00022430847
:1011B0008B4274D303098B425FD3030A8B4244D31F
:1011C000030B8B4228D3030C8B420DD3FF22090261
:1011D00012BA030C8B4202D31212090265D0030B20
:1011E0008B4219D300E0090AC30B8B4201D3CB0316
:1011F000C01A5241830B8B4201D38B03C01A524158
:10120000430B8B4201D34B03C01A5241030B8B4259
:1012100001D30B03C01A5241C30A8B4201D3CB0244
:10122000C01A5241830A8B4201D38B02C01A524129
:10123000430A8B4201D34B02C01A5241030A8B422C
:1012400001D30B02C01A5241CDD2C3098B4201D344
:10125000CB01C01A524183098B4201D38B01C01AC2
:10126000524143098B4201D34B01C01A5241030939
:101270008B4201D30B01C01A5241C3088B4201D3E8
:10128000CB00C01A524183088B4201D38B00C01A95
:10129000524143088B4201D34B00C01A5241411ABC
:1012A00000D20146524110467047FFE701B50020C9
:1012B00000F006F802BDC0460029F7D076E7704777
:1012C0007047C04670B500260C4D0D4C641BA41031
:1012D000A64209D10026FEF7F5FE0A4D0A4C641B12
:1012E000A410A64205D170BDB300EB589847013653
:1012F000EEE7B300EB5898470136F2E724240008E4
:1013000024240008242400082424000803001218C0
:10131000934200D1704719700133F9E70FB40B4BBA
:1013200013B51C68002C05D0A369002B02D1200046
:1013300000F03CFA05AB049AA1682000019300F08C
:1013400005FC16BC08BC04B01847C04620020020AB
:1013500070B505000E00002804D08369002B01D170
:1013600000F024FAAB69AC68002B02D1280000F031
:101370001DFA244B9C420FD16C68A3891B0702D530
:101380002369002B1FD12100280000F0A1F80028BC
:1013900019D00120404270BD1B4B9C4201D1AC686A
:1013A000EBE71A4B9C42E8D1EC68E6E70136A36014
:1013B000002B04DAA2699A4216DC0A2914D02368A9
:1013C0005A1C22601970A3683178013B0029EDD1C5
:1013D000A360002B0FDA22000A31280000F022F867
:1013E000431CD6D00A20D6E72200280000F01AF8C5
:1013F000431CE8D1CDE70A2023685A1C22601870EC
:10140000C9E7C046B0230008D02300089023000895
:1014100010B5034B01001868FFF79AFF10BDC046D6
:1014200020020020F8B505000E001400002804D0AA
:101430008369002B01D100F0B9F9224B9C422DD1D8
:101440006C68A369A360A3891B0731D52369002BAE
:101450002ED023682269F7B2981A6369F6B28342E4
:1014600005DC2100280000F033F9002826D1A3680C
:101470000130013BA36023685A1C22601F7063691E
:10148000834204D0A389DB071AD50A2E18D1210084
:10149000280000F01DF9002812D00FE00A4B9C42F2
:1014A00001D1AC68CDE7094B9C42CAD1EC68C8E7D2
:1014B0002100280000F00CF80028CAD0012676424E
:1014C0003000F8BDB0230008D023000890230008A6
:1014D000364B70B51D6806000C00002D05D0AB69B9
:1014E000002B02D1280000F061F9314B9C420FD152
:1014F0006C680C23E25E93B219072DD4D90611D47F
:1015000009230120336037331343A381404270BD68
:10151000284B9C4201D1AC68EBE7274B9C42E8D1B9
:10152000EC68E6E75B0713D5616B002908D0230060
:101530004433994202D0300000F038FA002363634C
:101540002422A3899343A38100236360236923603A
:101550000823A2891343A3812369002B0BD1A02167
:101560008022A389890092000B40934203D021007E
:10157000300000F0D7F90123A289134011D00023D5
:10158000A36063695B42A361002023698342BED1EB
:101590000C23E25E1306BAD540231343A38101381E
:1015A000B5E7920700D46369A360EDE7200200204D
:1015B000B0230008D023000890230008F7B58A89DB
:1015C00005000C00130760D44B68002B04DC0B6C87
:1015D000002B01DC0020FEBDE76A002FFAD00023BB
:1015E0002E682B6080235B01216A1A4034D0606D25
:1015F000A3895B0706D56368C01A636B002B01D013
:10160000236CC01A0200216A00232800E76AB84749
:10161000A189431C06D12B681D2B30D82B4ADA40F8
:10162000D3072CD50023636023692360CB0405D541
:10163000431C02D12B68002B00D16065616B2E60CA
:101640000029C7D023004433994202D0280000F07B
:10165000ADF900206063BEE701232800B847431CB2
:10166000C6D12B68002BC3D01D2B01D0162B01D166
:101670002E60AFE74023A2891343A381ABE7402349
:101680000B430120A3814042A5E70F69002FA1D0A1
:101690000B680F60DB1B01930023920700D14B699D
:1016A000A360019B002B00DC94E7019B3A00216AB8
:1016B0002800A66AB047002803DC4023A289134310
:1016C000DFE7019B3F181B1A0193EAE70100402066
:1016D0000B6970B505000C00002B01D1002070BD16
:1016E000002804D08369002B01D100F05FF80B4B78
:1016F0009C4209D16C680C22A35E002BEED0210025
:101700002800FFF75BFFEAE7054B9C4201D1AC687C
:10171000F1E7044B9C42EED1EC68ECE7B023000803
:10172000D023000890230008002310B504000360B4
:101730004360836081814366C28103614361836149
:10174000190008225C30FFF7E1FD054B246263625B
:10175000044BA362044BE362044B236310BDC046F9
:10176000652000088D200008C5200008F120000831
:1017700010B5024900F08CF810BDC046D116000823
:1017800070B568254A1E55430E002900743100F0DB
:1017900057F9041E08D000212A00016046600C3071
:1017A000A0606832FFF7B2FD200070BD836913B5F9
:1017B0000400002B28D18364C3640365134B144ACF
:1017C0001B6882620193984201D10123836120004A
:1017D00000F020F86060200000F01CF8A0602000FD
:1017E00000F018F80022E06004216068FFF79CFF19
:1017F00001220921A068FFF797FF02221221E06869
:10180000FFF792FF0123A36113BDC0468C2300089C
:1018100071170008F8B51C4B07001E68B369002B50
:1018200002D13000FFF7C2FF4836B4687368013B4D
:1018300004D53368002B07D03668F6E70C22A55E86
:10184000002D0DD06834F2E704213800FFF798FF2F
:1018500030600028F0D10C2304003B602000F8BD6C
:1018600020000A4B656625606560A560E360256120
:101870006561A561082229005C30FFF747FD6563BB
:10188000A563A564E564E9E78C2300080100FFFF78
:10189000F7B504000700002601914834002C01D15F
:1018A0003000FEBD6368A5680093009B013B009378
:1018B00001D52468F2E7AB89012B08D90E22AB5E73
:1018C000013304D029003800019B9847064368354E
:1018D000EBE7000070B50E001D000E23C95E96B048
:1018E0001400002907DA00232B60B3891B0611D4EA
:1018F0008023DB000FE06A46FEF71EFC0028F2DBC7
:10190000F022019B12021340054A9B185A42534190
:101910002B60EDE740230020236016B070BDC04669
:1019200000E0FFFFF7B502268B8905000C0033426B
:1019300006D0230047332360236101236361F7BD91
:1019400001AB6A46FFF7C6FF00990700280000F0C8
:1019500077F8002808D10C22A35E9A05EFD4032261
:1019600093431E43A681E4E70F4BAB628023A28919
:1019700020601343A381009B20616361019B002BC6
:101980000DD00E23E15E2800FEF7DBFB002806D019
:101990000322A38993431A0001231343A381A0893F
:1019A0003843A081CBE7C0467117000870B5050029
:1019B000002910D00C1F2368002B00DAE41828003F
:1019C00000F0A7FB1D4A1368002B05D1636014606B
:1019D000280000F09FFB70BDA34209D92168601860
:1019E0008342F3D118685B6841182160EEE7130069
:1019F0005A68002A01D0A242F9D919685818A042A1
:101A00000BD120680918581819608242E0D110687B
:101A10005268411819605A60DAE7A04202D90C23D3
:101A20002B60D5E721686018824203D110685268A4
:101A30004118216062605C60CAE7C046500B00201C
:101A4000032370B5CD1C9D43083506000C2D1ED216
:101A50000C25A9421DD8300000F05BFB254A146814
:101A60002100002919D1244C2368002B03D1300018
:101A7000FEF72EFB206029003000FEF729FB431CF7
:101A80002BD10C233000336000F044FB03E0002D29
:101A9000DFDA0C233360002070BD0B685B1B19D4A8
:101AA0000B2B03D90B60CC18256003E04B688C42EC
:101AB0000DD11360300000F02DFB200007220B3009
:101AC000231D9043C31AE7D05A42E250E4E7636013
:101AD0000C00EFE70C004968C3E70323C41C9C43D8
:101AE000A042E1D0211A3000FEF7F2FA431CDBD10C
:101AF000C7E7C046500B0020540B0020936810B578
:101B0000013B9360002B04DA9469A34207DB0A29A6
:101B100005D01368581C10601970080010BDFFF73D
:101B200081FC0100F9E7F8B506000F001400D51894
:101B3000AC4201D1002007E021783A003000FFF7E5
:101B4000DDFF0134431CF3D1F8BD0000F0B5A1B0B6
:101B500003900F0016001D00002805D0836905932F
:101B6000002B01D1FFF722FE7B4B9F425CD1039BF0
:101B70005F68BB891B0763D53B69002B60D00023DE
:101B800008AC6361203363761033A3760795350084
:101B90002B78002B01D0252B5CD1AB1B05930CD0EF
:101BA000320039000398FFF7BEFF431C00D1C4E0A8
:101BB0006269059B9446634463612B78002B00D1D6
:101BC000BBE0012200235242626004A95432521841
:101BD0006E1C2360E360A3601370A3653178052257
:101BE0005E4800F08BFA751C002835D12268D306B8
:101BF00004D5532304A95B1820211970130704D5B9
:101C0000532304A95B182B21197033782A2B2CD06D
:101C1000350000210A20E3682A786E1C303A092A30
:101C200064D900292ED026E04D4B9F4202D1039B60
:101C30009F689EE74B4B9F429BD1039BDF6898E7D1
:101C400039000398FFF744FC002898D00120404257
:101C500021B0F0BD01359BE7404B2268C01A01233B
:101C60008340134323602E00B8E7079B191D1B68B0
:101C70000791002B01DB0B9304E05B42E36002233E
:101C8000134323602B782E2B0AD16B782A2B35D166
:101C9000079B02351A1D1B680792002B2BDB09934B
:101CA000314E29780322300000F028FA002806D0AF
:101CB0004023801B83402268013513432360297829
:101CC00006222A486E1C217600F018FA00283AD025
:101CD000274B002B25D10722079B0733934308335B
:101CE00007936369049A9B18636150E7434301219A
:101CF0009B18350090E701235B42D0E700230A20C0
:101D00001A000135636029786E1C3039092903D91E
:101D1000002BC5D00992C3E7424301235218350076
:101D2000F1E707AB00933A00124B2100039800E063
:101D300000BF0490049B0133D3D1BB895B0600D55F
:101D400084E70D9884E707AB00933A00094B210024
:101D5000039800F07FF8ECE7B0230008F0230008B8
:101D6000D023000890230008F6230008FA23000877
:101D700000000000271B0008F7B5150001938A68D2
:101D80000B6900900C00934200DA130022002B60D4
:101D900043321278002A01D001332B6023689B065E
:101DA00002D52B6802332B60062723681F4027D0FB
:101DB000230043331B785A1E93412268920630D485
:101DC0002200019943320098089EB047431C25D059
:101DD000062320682A68E16803400025042B03D10C
:101DE0008D1AEB43DB171D40A3682269934201DD86
:101DF0009B1AED180027BD4220D1002010E00137CA
:101E0000E3682A689B1ABB42D2DD22000123193203
:101E100001990098089EB047431CF0D10120404230
:101E2000FEBD3020E1184331087021005A1C4531B5
:101E30000978A218433202331170C1E7220001234E
:101E40001A3201990098089EB047431CE6D001372A
:101E5000D1E70000F0B589B004920A00433205933F
:101E6000039002920A7E0C000E9B6E2A00D186E03F
:101E70001FD8632A33D008D8002A00D18CE0582A12
:101E80004DD0250042352A7030E0642A01D0692AFD
:101E9000F7D1196825680A1D280629D508681A602F
:101EA000002803DA2D23029A404213706B4E0A2752
:101EB0004FE0732A74D008D86F2A1FD0702AE0D15F
:101EC000202209680A43226003E0752A16D0782A86
:101ED000D7D12200782145321170614E22E02500D1
:101EE0001A684235111D196013682B70012365E0D3
:101EF00008681A606906D3D500B2D1E71968256869
:101F0000081D186008682E0605D5544E08276F2A4C
:101F10001BD00A2719E06D06F7D580B2F5E74531E9
:101F20004E4E0A7018682268011D00681960150677
:101F300021D5D30702D520231A4322601027002879
:101F400003D1202322689A432260230000224333D6
:101F50001A706368A360002B58DB04222168914348
:101F60002160002854D1029D002B5AD025003378DF
:101F700042352B7055E05506DBD580B2D9E71A689B
:101F80000D68101D4969186013682E0601D5196087
:101F900002E06D06FBD519800023029D23614FE00E
:101FA0001A68111D1960156800216268280000F088
:101FB000A5F8002801D0401B6060636823610023FE
:101FC000029A13703CE023692A0004990398059D46
:101FD000A847431C3ED023689B0715D4079BE068A5
:101FE000984239DA180037E02200012319320499A7
:101FF0000398059EB047431C2CD00135E368079A2F
:102000009B1AAB42F0DCE9E70025F7E70028ADD0EA
:10201000029D3900FFF750F9735C013D2B700028D9
:10202000F7D1082F09D12368DB0706D56368226939
:10203000934202DC3023013D2B70029B5B1B23612A
:10204000059B07AA00932100049B0398FFF794FEC9
:10205000431CB8D10120404209B0F0BD0124000862
:102060001224000870B50C000E25495FFEF74EF8EB
:10207000002803DB636D1B18636570BDA389024AEA
:102080001340A381F9E7C046FFEFFFFFF8B51F003B
:102090008B8905000C001600DB0505D50E23C95EF3
:1020A00000220223FEF743F8A389054A28001340C3
:1020B000A38132000E23E15E3B00FEF72DF8F8BD50
:1020C000FFEFFFFF70B50C000E25495FFEF72FF8FC
:1020D000A389421C03D1054A1340A38170BD80220D
:1020E00052011343A3816065F8E7C046FFEFFFFF8D
:1020F00010B50E23C95EFEF715F810BDC9B28218DF
:10210000904201D10020704703788B42FBD0013010
:10211000F6E77047704700011C021D0E18031E16DB
:10212000140F191104081F1B0D17151310071A0C93
:1021300012060B050A0944554D4D592048414E449D
:102140004C4552000A49535220737461636B206FEF
:10215000766572666C6F77656400537461636B209B
:10216000706F696E74657220636F727275707465DA
:10217000642C20726573657420746F20746F7020F6
:102180006F6620737461636B000A436F6E746578C9
:1021900074206265666F726520686172646661753D
:1021A0006C743A0020202072303A20307825303884
:1021B0006C780A20202072313A2030782530386C33
:1021C000780A20202072323A2030782530386C7816
:1021D0000A20202072333A2030782530386C780A73
:1021E0000020207231323A2030782530386C780A5D
:1021F0002020206C723A2030782530386C780A2004
:10220000202070633A2030782530386C780A2020FE
:102210007073723A2030782530386C780A0A004D95
:10222000697363004558435F5245543A203078251E
:1022300030386C780A00417474656D7074696E672B
:1022400020746F207265636F6E737472756374208F
:10225000737461746520666F722064656275676768
:10226000696E672E2E2E00496E204744423A0A209E
:1022700020736574202470633D3078256C780A20C3
:10228000206672616D6520300A202062740A000A9F
:1022900049535220737461636B206F766572666C6C
:1022A0006F776564206279206174206C6561737456
:1022B0002025642062797465732E0A0048415244D7
:1022C000204641554C542048414E444C4552004E06
:1022D0004D492048414E444C4552000000380140D1
:1022E0000040000007040048060400480000011BED
:1022F00000440040000002000300004802000048C3
:102300000101001C4641494C45442041535345526C
:1023100054494F4E2E0025700A002A2A2A2052497D
:102320004F54206B65726E656C2070616E69633A04
:102330000A25730A0A002A2A2A2068616C746564D7
:102340002E0A0A006D61696E28293A205468697363
:102350002069732052494F542120285665727369B1
:102360006F6E3A20323031382E31302E31290A004A
:1023700069646C65006D61696E00010100000040D8
:10238000FFFFFFFF01000000000F000024020020FB
:10239000000000000000000000000000000000003D
:1023A000000000000000000000000000000000002D
:1023B000000000000000000000000000000000001D
:1023C000000000000000000000000000000000000D
:1023D00000000000000000000000000000000000FD
:1023E00000000000000000000000000000000000ED
:1023F000232D302B2000686C4C00656667454647EE
:102400000030313233343536373839414243444570
:1024100046003031323334353637383961626364DF
:0424200065660000ED
:102424005C0B00206003002040000000000000005E
:10243400000000000000000070230008752300085D
:102444002402002000000000B0230008D02300086C
:1024540090230008000000000000000000000000BD
:102464000000000000000000000000000000000068
:102474000000000000000000000000000000000058
:102484000000000000000000000000000000000048
:102494000000000000000000000000000000000038
:0824A4000000000028210000E7
:0400000508000411DA
:00000001FF
